:020000040800F2
:100000000050002095100008DD100008DD100008E9
:10001000DD100008DD100008DD1000080000000001
:10002000000000000000000000000000DD100008DB
:10003000DD10000800000000DD1000085D0E000863
:10004000DD100008DD100008DD100008DD100008DC
:10005000DD100008DD100008DD100008DD100008CC
:10006000DD100008DD100008DD100008DD100008BC
:10007000DD100008DD100008DD100008DD100008AC
:10008000DD100008DD100008DD100008DD1000089C
:10009000DD100008DD100008DD100008DD1000088C
:1000A000DD100008DD100008DD100008DD1000087C
:1000B000DD100008DD100008DD100008DD1000086C
:1000C000DD100008DD100008DD100008DD1000085C
:1000D000DD100008DD100008DD100008DD1000084C
:1000E000DD100008DD100008DD1000080000000031
:1000F0000000000000000000000000000000000000
:0C01000000000000000000005FF808F1A3
:1001100010B5054C237833B9044B13B10448AFF341
:1001200000800123237010BDC801002000000000E2
:10013000E03A000808B5034B1BB103490348AFF38D
:10014000008008BD00000000CC010020E03A00085B
:10015000034613F8012B002AFBD1181A0138704707
:1001600081F0004102E000BF83F0004330B54FEA68
:1001700041044FEA430594EA050F08BF90EA020FD5
:100180001FBF54EA000C55EA020C7FEA645C7FEA68
:10019000655C00F0E2804FEA5454D4EB5555B8BF8B
:1001A0006D420CDD2C4480EA020281EA030382EAFC
:1001B000000083EA010180EA020281EA0303362D8E
:1001C00088BF30BD11F0004F4FEA01314FF4801C61
:1001D0004CEA113102D0404261EB410113F0004F73
:1001E0004FEA03334CEA133302D0524263EB43032A
:1001F00094EA050F00F0A780A4F10104D5F1200EC8
:100200000DDB02FA0EFC22FA05F2801841F1000122
:1002100003FA0EF2801843FA05F359410EE0A5F1F6
:1002200020050EF1200E012A03FA0EFC28BF4CF027
:10023000020C43FA05F3C01851EBE37101F00045DD
:1002400007D54FF0000EDCF1000C7EEB00006EEBEA
:100250000101B1F5801F1BD3B1F5001F0CD3490874
:100260005FEA30004FEA3C0C04F101044FEA4452CB
:1002700012F5800F80F09A80BCF1004F08BF5FEA52
:10028000500C50F1000041EB045141EA050130BD32
:100290005FEA4C0C404141EB0101013C28BFB1F544
:1002A000801FE9D291F0000F04BF01460020B1FA8F
:1002B00081F308BF2033A3F10B03B3F120020CDA62
:1002C0000C3208DD02F1140CC2F10C0201FA0CF040
:1002D00021FA02F10CE002F11402D8BFC2F1200CA5
:1002E00001FA02F120FA0CFCDCBF41EA0C0190405B
:1002F000E41AA2BF01EB0451294330BD6FEA0404A4
:100300001F3C1CDA0C340EDC04F11404C4F120028E
:1003100020FA04F001FA02F340EA030021FA04F3A0
:1003200045EA030130BDC4F10C04C4F1200220FAF7
:1003300002F001FA04F340EA0300294630BD21FA35
:1003400004F0294630BD94F0000F83F4801306BFFB
:1003500081F480110134013D4EE77FEA645C18BFEF
:100360007FEA655C29D094EA050F08BF90EA020F86
:1003700005D054EA000C04BF1946104630BD91EA7E
:10038000030F1EBF0021002030BD5FEA545C05D181
:100390004000494128BF41F0004130BD14F58004C0
:1003A0003CBF01F5801130BD01F0004545F0FE4134
:1003B00041F470014FF0000030BD7FEA645C1ABF69
:1003C000194610467FEA655C1CBF0B46024650EAA0
:1003D000013406BF52EA033591EA030F41F40021CC
:1003E00030BD00BF90F0000F04BF0021704730B552
:1003F0004FF4806404F132044FF000054FF0000127
:1004000050E700BF90F0000F04BF0021704730B5E7
:100410004FF4806404F1320410F0004548BF4042BC
:100420004FF000013EE700BF42004FEAE2014FEA11
:1004300031014FEA02701FBF12F07F4393F07F4FEC
:1004400081F06051704732F07F4208BF704793F0EF
:100450007F4F04BF41F40021704730B54FF4607402
:1004600001F0004521F000411CE700BF50EA010205
:1004700008BF704730B54FF000050AE050EA0102AE
:1004800008BF704730B511F0004502D5404261EB1E
:1004900041014FF4806404F132045FEA915C3FF45F
:1004A000D8AE4FF003025FEADC0C18BF03325FEAFC
:1004B000DC0C18BF033202EBDC02C2F1200300FAAD
:1004C00003FC20FA02F001FA03FE40EA0E0021FAD2
:1004D00002F11444BDE600BF70B54FF0FF0C4CF4C0
:1004E000E06C1CEA11541DBF1CEA135594EA0C0F72
:1004F00095EA0C0F00F0DEF82C4481EA030621EAAD
:100500004C5123EA4C5350EA013518BF52EA0335E7
:1005100041F4801143F4801338D0A0FB02CE4FF099
:100520000005E1FB02E506F00042E0FB03E54FF0C9
:100530000006E1FB03569CF0000F18BF4EF0010EC1
:10054000A4F1FF04B6F5007F64F5407404D25FEABD
:100550004E0E6D4146EB060642EAC62141EA555170
:100560004FEAC52040EA5E504FEACE2EB4F1FD0CB2
:1005700088BFBCF5E06F1ED8BEF1004F08BF5FEA30
:10058000500E50F1000041EB045170BD06F00046E2
:1005900046EA010140EA020081EA0301B4EB5C048F
:1005A000C2BFD4EB0C0541EA045170BD41F4801187
:1005B0004FF0000E013C00F3AB8014F1360FDEBFAC
:1005C000002001F0004170BDC4F10004203C35DA88
:1005D0000C341BDC04F11404C4F1200500FA05F30B
:1005E00020FA04F001FA05F240EA020001F00042AC
:1005F00021F0004110EBD37021FA04F642EB060122
:100600005EEA430E08BF20EAD37070BDC4F10C044B
:10061000C4F1200500FA04F320FA05F001FA04F20F
:1006200040EA020001F0004110EBD37041F10001FB
:100630005EEA430E08BF20EAD37070BDC4F1200506
:1006400000FA05F24EEA020E20FA04F301FA05F26E
:1006500043EA020321FA04F001F0004121FA04F216
:1006600020EA020000EBD3705EEA430E08BF20EAE6
:10067000D37070BD94F0000F0FD101F00046400020
:1006800041EB010111F4801F08BF013CF7D041EAA2
:10069000060195F0000F18BF704703F000465200A6
:1006A00043EB030313F4801F08BF013DF7D043EA77
:1006B0000603704794EA0C0F0CEA135518BF95EA2D
:1006C0000C0F0CD050EA410618BF52EA4306D1D1B4
:1006D00081EA030101F000414FF0000070BD50EAD3
:1006E000410606BF1046194652EA430619D094EA5D
:1006F0000C0F02D150EA013613D195EA0C0F05D147
:1007000052EA03361CBF104619460AD181EA03019A
:1007100001F0004141F0FE4141F470014FF0000052
:1007200070BD41F0FE4141F4780170BD70B54FF0ED
:10073000FF0C4CF4E06C1CEA11541DBF1CEA13556D
:1007400094EA0C0F95EA0C0F00F0A7F8A4EB05044F
:1007500081EA030E52EA03354FEA013100F0888046
:100760004FEA03334FF0805545EA131343EA12630F
:100770004FEA022245EA111545EA10654FEA0026C4
:100780000EF000419D4208BF964244F1FD0404F57D
:10079000407402D25B084FEA3202B61A65EB0305D9
:1007A0005B084FEA32024FF480104FF4002CB6EB96
:1007B000020E75EB030E22BFB61A754640EA0C0016
:1007C0005B084FEA3202B6EB020E75EB030E22BF56
:1007D000B61A754640EA5C005B084FEA3202B6EB97
:1007E000020E75EB030E22BFB61A754640EA9C0056
:1007F0005B084FEA3202B6EB020E75EB030E22BF26
:10080000B61A754640EADC0055EA060E18D04FEAE3
:10081000051545EA16754FEA06164FEAC30343EA83
:1008200052734FEAC2025FEA1C1CC0D111F4801F50
:100830000BD141EA00014FF000004FF0004CB6E749
:1008400011F4801F04BF01430020B4F1FD0C88BFE8
:10085000BCF5E06F3FF6AFAEB5EB030C04BFB6EBF3
:10086000020C5FEA500C50F1000041EB045170BDE6
:100870000EF0004E4EEA113114EB5C04C2BFD4EB13
:100880000C0541EA045170BD41F480114FF0000E97
:10089000013C90E645EA060E8DE60CEA135594EA13
:1008A0000C0F08BF95EA0C0F3FF43BAF94EA0C0F16
:1008B0000AD150EA01347FF434AF95EA0C0F7FF48B
:1008C00025AF104619462CE795EA0C0F06D152EADF
:1008D00003353FF4FDAE1046194622E750EA4106C3
:1008E00018BF52EA43067FF4C5AE50EA41047FF4D4
:1008F0000DAF52EA43057FF4EBAE12E74FF0FF3C39
:1009000006E000BF4FF0010C02E000BF4FF0010C09
:100910004DF804CD4FEA410C7FEA6C5C4FEA430C82
:1009200018BF7FEA6C5C1BD001B050EA410C0CBFD1
:1009300052EA430C91EA030F02BF90EA020F002033
:10094000704710F1000F91EA030F58BF994208BF9A
:1009500090422CBFD8176FEAE37040F00100704757
:100960004FEA410C7FEA6C5C02D150EA013C07D1AE
:100970004FEA430C7FEA6C5CD6D152EA033CD3D0F9
:100980005DF8040B704700BF8446104662468C46F3
:100990001946634600E000BF01B5FFF7B7FF002826
:1009A00048BF10F1000F01BD4DF808EDFFF7F4FF4F
:1009B0000CBF012000205DF808FB00BF4DF808EDDA
:1009C000FFF7EAFF34BF012000205DF808FB00BFFD
:1009D0004DF808EDFFF7E0FF94BF012000205DF81F
:1009E00008FB00BF4DF808EDFFF7CEFF94BF0120D4
:1009F00000205DF808FB00BF4DF808EDFFF7C4FFCD
:100A000034BF012000205DF808FB00BF4FEA410C15
:100A10007FEA6C5C02D150EA013C0AD14FEA430CF8
:100A20007FEA6C5C02D152EA033C02D14FF0000035
:100A300070474FF0010070474FEA410212F5001273
:100A400015D211D56FF47873B3EB625212D94FEA15
:100A5000C12343F0004343EA505311F0004F23FAFF
:100A600002F018BF404270474FF00000704750EA54
:100A7000013005D111F0004008BF6FF00040704711
:100A80004FF00000704700BF80B400AF1F4B9B6960
:100A90001E4A43F0040393611C4B9B691B4A43F0BD
:100AA000010393611A4B5B68194A23F0C00353603A
:100AB000174B5B68164A43F080035360144B5B6826
:100AC000134A23F440635360114B5B68104A43F4AC
:100AD000806353600E4B5B680D4A23F03003536014
:100AE0000B4B5B680A4A23F440735360084B5B6806
:100AF000074A43F010035360064B5B68054A23F036
:100B00000403536000BFBD4680BC70470010024024
:100B1000000801400000014080B400AF2A4B9B69EF
:100B2000294A43F480439361284BDB68274A43F00A
:100B30000803D360254BDB68244A23F48063D36029
:100B4000224BDB68214A23F40073D3601F4BDB6820
:100B50001E4A23F48053D3601C4B1B691B4A23F4A9
:100B600040531361194B5B69184A23F400735361B6
:100B7000164B5B69154A23F480735361134B0022B3
:100B80009A60124B9B68114A43F41C7393600F4B9D
:100B90009B680E4A43F0010393600C4B1B690B4AA0
:100BA00023F490431361094B5B69084A23F02A033D
:100BB0005361064BDB68054A43F40053D36000BF22
:100BC000BD4680BC704700BF0010024000380140A5
:100BD00080B586B000AFF8600B467A60FB720023E8
:100BE000FB7500F031F903463B611AE01A4B1B68B4
:100BF00003F08003002B09D0FB7DFA6813441A78B8
:100C0000154B5A60FB7D0133FB750AE000F01CF9BF
:100C100003461A463B69D31A7A689A4201D80023E0
:100C200016E0FA7DFB7A9A42E0D30AE000F00CF974
:100C300003461A463B69D31A7A689A4201D80023C0
:100C400006E0054B1B6803F04003002BEED10123A7
:100C500018461837BD4680BD0038014080B483B0C7
:100C600000AF0346FB7197F90730002B0CDBFB79D3
:100C700003F01F02074997F907305B09012000FACA
:100C800002F2603341F8232000BF0C37BD4680BC20
:100C9000704700BF00E100E080B483B000AF0346BE
:100CA0003960FB7197F90730002B0ADB3B68DAB239
:100CB0000C4997F907301201D2B20B4483F8002394
:100CC0000AE03B68DAB20849FB7903F00F03043B02
:100CD0001201D2B20B441A7600BF0C37BD4680BC5D
:100CE000704700BF00E100E000ED00E080B400AF1D
:100CF000364B5B68354A23F470135360334B5B68A3
:100D0000324A43F4E0135360304B5B682F4A23F4BC
:100D1000800353602D4B1B682C4A43F480331360CF
:100D200000BF2A4B1B6803F40033002BF9D0274B7C
:100D3000264A5B685360254B1B68244A43F0807346
:100D4000136000BF214B1B6803F00073002BF9D028
:100D50001F4B12221A601D4B5B681C4A23F00303D1
:100D600053601A4B5B68194A43F00203536000BF9B
:100D7000164B5B6803F00C03082BF9D1134B5B682F
:100D8000124A23F0F0035360104B5B680F4A23F4C0
:100D9000E06353600D4B5B680C4A43F4806353601F
:100DA0000A4B5B68094A23F460535360074B5B6846
:100DB000064A23F440435360044B5B68034A43F400
:100DC0000043536000BFBD4680BC70470010024026
:100DD0000020024080B582B000AF7860124B002244
:100DE0001A60114A7B68013B536000214FF0FF30CD
:100DF000FFF752FF0C4B00229A600B4B1B680A4A0C
:100E000043F004031360084B1B68074A43F00203D6
:100E10001360054B1B68044A43F00103136000BFD5
:100E20000837BD4680BD00BF10E000E080B400AFD1
:100E3000044B1B680133034A136000BFBD4680BCEE
:100E4000704700BFE401002080B400AF024B1B6874
:100E50001846BD4680BC7047E401002080B500AF55
:100E60004FF0FF30FFF7FAFEFFF7E0FF00BF80BD55
:100E700080B584B000AF7860FFF7E6FFF86000BF90
:100E8000FFF7E2FF0246FB68D31A7A689A42F7D866
:100E900000BF00BF1037BD4680BD000080B500AF69
:100EA000FFF724FF0C48FFF795FFFFF7EDFDFFF775
:100EB00033FE0A4800F088FE094800F085FE4FF432
:100EC0007A70FFF7D5FF074800F07EFE4FF47A7086
:100ED000FFF7CEFFF0E700BF40190100F83A000825
:100EE000003B00080C3B000880B582B000AF786082
:100EF0003B1D642201211846FFF76AFE7B681846F5
:100F00000837BD4680BD80B586B000AFF860B960D7
:100F10007A6000237B6109E0BB685A1CBA601B78C9
:100F20001846FFF7E1FF7B6901337B617A697B68D3
:100F30009A42F1DB7B6818461837BD4680BD80B405
:100F400000AF01231846BD4680BC704780B582B013
:100F500000AF7860396000F069FF034616221A601E
:100F60004FF0FF3318460837BD4680BD80B582B0CC
:100F700000AF78604FF0FF317868FFF7E7FFFEE7DA
:100F800080B586B000AFF860B9607A6000237B61FD
:100F90000AE0AFF300800146BB685A1CBA60CAB2CF
:100FA0001A707B6901337B617A697B689A42F0DB56
:100FB0007B6818461837BD4680BD80B483B000AF4B
:100FC00078604FF0FF3318460C37BD4680BC704741
:100FD00080B483B000AF786039603B684FF4005252
:100FE0005A60002318460C37BD4680BC704780B459
:100FF00083B000AF7860012318460C37BD4680BC33
:10100000704780B485B000AFF860B9607A600023A3
:1010100018461437BD4680BC7047000080B586B0C6
:1010200000AF7860144A154BD31A7B617B693B6132
:10103000134B1B68002B02D1114B124A1A60104B44
:101040001A687B6813443A699A4207D200F0EEFEB0
:1010500003460C221A604FF0FF3309E0084B1B686F
:10106000FB60074B1A687B681344054A1360FB68F2
:1010700018461837BD4680BD00500020000400000F
:10108000E80100203803002080B400AF00BFBD4657
:1010900080BC7047FFF7F8FF0B480C490C4A00234F
:1010A00002E0D458C4500433C4188C42F9D3094A1E
:1010B000094C002301E013600432A242FBD300F08C
:1010C000BBFEFFF7EBFE704700000020C8010020C8
:1010D0008C3E0008C801002038030020FEE7002BEA
:1010E0002DE9F0471F46BBBF03F100431F46002315
:1010F0002D2388B01446129A109D1370149BDDF8AE
:101100004CA023F02008B8F1460F05D0B8F1450FE8
:1011100000D10135022300E0032307AA049206AAA6
:10112000CDE902A2CDE9003522463B4600F044FF5E
:10113000B8F1470F064602D1119BDB0722D5B8F163
:10114000460F06EB050910D13378302B0AD1002267
:10115000002320463946FFF727FC18B9C5F10105E1
:10116000CAF80050DAF800309944002200232046E3
:101170003946FFF719FC08B1CDF81C903022079BC7
:101180004B4507D33046079B159A9B1B136008B04D
:10119000BDE8F087591C07911A70F0E70346F7B5D0
:1011A000002903F8022BB6BF2D222B224942092920
:1011B00042702ADD0DF1070217460A2691FBF6F56B
:1011C000944606FB151430340CF8014C0C46632C85
:1011D000294602F1FF32F1DC3031ACF1020402F8B1
:1011E000011C2246411CBA420AD30DF10902A2EBAE
:1011F0000C02BC4288BF00221344181A03B0F0BD91
:1012000012F8015B01F8015FEDE7302330318370A4
:10121000C170031DF1E700002DE9F04F91B00C46BD
:10122000DDF8688016461F46054600F0B5FD0368E8
:1012300018460993FEF78CFF00230E93D8F8003070
:101240000A90073323F0070303F1080294F818907B
:10125000D4F800B0C8F80020D3E900A852464346AD
:10126000C4E9122328F000430B934FF0FF3250469D
:101270009C4B0B99FFF7CAFB70BB4FF0FF325046F7
:10128000984B0B99FFF7A4FB30BB0022002350467C
:101290004146FFF793FB10B12D2384F84330924A67
:1012A000924BB9F1470F94BF9046984603234FF0F5
:1012B000000A23612BF004032360334621462846AD
:1012C00000970FAA00F0D6F9013040F090804FF05F
:1012D000FF3011B0BDE8F08F5246434650464146BC
:1012E000FFF794FB48B1B8F1000FB8BF2D23804A37
:1012F000B8BF84F843307F4BD3E7636809F0DF0160
:101300005A1C42D106236360002206920EAACDE940
:1013100004920DAA4BF4806303920DF13302CDE9E0
:1013200001322360636852460093284643460B917E
:10133000FFF7D5FE0B99804647290D9908D1C81CA7
:1013400002DB6368994240DDA9F102095FFA89F97D
:10135000B9F1650F1FD84A46013904F150000D91CB
:10136000FFF71CFF0E9A82461318012A236102DC44
:101370002268D20701D5013323619DF83330002B59
:101380009BD02D2384F8433097E74729BCD1002B0D
:10139000BAD10123B7E7B9F1660F18D10029636804
:1013A0000BDD216113B92268D00702D501330B444C
:1013B00023614FF0000AA165DFE713B92268D20765
:1013C00001D50233F4E70123F2E74FF067090E9BE2
:1013D000994205DB23682161D807EAD54B1CE7E772
:1013E0000029CCBF0122C1F102021344E0E72368C7
:1013F0005A0507D42369424631462846B84701308A
:101400002BD164E7B9F1650F40F2DD80D4E9120118
:1014100000220023FFF7C8FA002833D00123314609
:101420002846354AB84701303FF451AFDDE90D2376
:101430009A4202DB2368D8070FD5DDE9092331463C
:101440002846B84701303FF442AF4FF0000804F19E
:101450001A090E9B013B434509DC23689B0700F1F9
:101460000481E0680F9B9842B8BF184631E701231A
:101470004A4631462846B84701303FF428AF08F1C4
:101480000108E6E70D9B002B38DC01233146284696
:10149000194AB84701303FF41AAFDDE90D32134362
:1014A00002D12368D907D8D5DDE90923314628467A
:1014B000B84701303FF40BAF4FF0000904F11A0AAE
:1014C0000D9B5B424B4501DC0E9B94E7012352468A
:1014D00031462846B84701303FF4F9AE09F1010919
:1014E000EEE700BFFFFFEF7F113B0008153B000850
:1014F000193B00081D3B0008213B00080E9AA36D14
:101500009A42A8BF1A46002A914637DC4FF0000BDA
:1015100029EAE97904F11A02D4F858A0AAEB0903E0
:101520005B4533DCDDE90D239A423BDB2368DA07B8
:1015300038D4DDE90D32A2EB0309A2EB0A02914592
:10154000A8BF9146B9F1000F34DC4FF0000829EA3A
:10155000E97904F11A0ADDE90D239B1AA3EB0903CB
:1015600043457FF77AAF0123524631462846B847B4
:1015700001303FF4ACAE08F10108ECE71346314608
:1015800042462846B8470130C0D1A0E60123314683
:1015900028460B92B84701303FF499AE0B9A0BF1F5
:1015A000010BB9E73146DDE909232846B847013088
:1015B000BFD18CE64B463146284608EB0A02B847B5
:1015C0000130C2D183E60E9A012A01DCDB0739D54E
:1015D0000123424631462846B84701303FF477AEF2
:1015E000DDE9092331462846B84701303FF46FAEA4
:1015F000D4E9120100220023DDF83890FFF7D4F976
:10160000D8B909F1FF3308F1010231462846B8473D
:1016100001300ED15BE601234A4631462846B847E1
:1016200001303FF454AE08F101080E9B013B4345E5
:10163000F1DC534604F15002DEE64FF0000804F1FD
:101640001A09F2E701234246DFE701234A46314601
:101650002846B84701303FF43AAE08F10108E36884
:101660000F995B1A4345F0DCFBE64FF0000804F1EC
:101670001909F4E72DE9F047164699468A680B697F
:1016800007469342B8BF1346336091F843200C4697
:10169000DDF820800AB1013333602368990642BF28
:1016A000336802333360256815F0060506D104F16E
:1016B000190AE36832689B1AAB422BDC94F843208A
:1016C000131E226818BF0123920630D449463846BB
:1016D00004F14302C047013023D02368226903F09C
:1016E0000603042B14BF002533684FF0000608BF23
:1016F000E56804F11A0408BFED1A54F8123C08BF5B
:1017000025EAE5759342C4BF9B1AED18B5421AD17C
:10171000002008E00123524649463846C0470130C0
:1017200003D14FF0FF30BDE8F0870135C1E730202D
:10173000E11881F843005A1C94F845102244023302
:1017400082F84310C2E70123224649463846C04783
:101750000130E6D00136D9E72DE9FF470F7E9146EB
:10176000782F80460C469A460C9D01F1430207D81B
:10177000622F0AD8002F00F0D580582F00F0C180CA
:1017800004F1420584F842703AE0A7F16303152B97
:10179000F6D801A151F823F0F11700080518000848
:1017A00081170008811700088117000881170008B9
:1017B0000518000881170008811700088117000824
:1017C000811700080B19000831180008C518000817
:1017D00081170008811700082D19000881170008DB
:1017E000311800088117000881170008CD1800087B
:1017F0002B681A1D1B682A6004F1420584F84230E8
:101800000123A0E020682B68070603F1040129608A
:1018100001D51E6803E04606FBD5B3F90060002E33
:1018200003DA2D23764284F843300A23594812E024
:101830002B682068191D2960050601D51E6802E085
:101840004106FBD51E886F2F0CBF08230A23514881
:10185000002184F843106568002DA8BF2168A560A9
:10186000A4BF21F0040121600EB9002D4BD0154614
:10187000B6FBF3F103FB1167C75D05F8017D374641
:10188000BB420E46F4D9082B0BD12368DE0708D5DE
:10189000236961689942DEBF302305F8013C05F1F8
:1018A000FF35521B22614B4621464046CDF800A031
:1018B00003AAFFF7DFFE01304AD14FF0FF3004B03A
:1018C000BDE8F087236843F020032360782732487F
:1018D00084F84570236829681F0651F8046B02D408
:1018E0005F0648BFB6B2DF0748BF43F02003296058
:1018F00048BF23601EB9236823F020032360102310
:10190000A6E72448E4E71546BDE72B682668181DBE
:101910006169286035061B6801D5196002E0700610
:10192000FBD51980002315462361BCE72B680021F5
:101930001A1D2A601D686268284600F0A4FA08B1E2
:10194000401B606063682361002384F84330AAE78A
:101950002A46494640462369D0470130ADD0236826
:101960009B0713D4E068039B9842B8BF1846A6E7CC
:101970000123324649464046D04701309DD00135CB
:10198000E36803995B1AAB42F2DCEBE7002504F154
:101990001906F5E7233B0008343B0008002310B587
:1019A0000446C0E90033C0E90433836081814366A3
:1019B000C2818361194608225C3000F0E5F90D4BC5
:1019C000246263620C4BA3620C4BE3620C4B2363F7
:1019D0000C4B9C4206D003F16802944202D0D033F3
:1019E0009C4205D104F15800BDE8104000F048BA0F
:1019F00010BD00BFD91B0008FB1B0008331C0008EA
:101A0000571C0008EC010020024A0349034800F07B
:101A100069B800BF000000206D3500080C000020F0
:101A200041680C4B10B59942044601D001F09EFD6F
:101A3000A168094B994202D0204601F097FDE16868
:101A4000064B994204D02046BDE8104001F08EBDFF
:101A500010BD00BFEC01002054020020BC02002099
:101A600010B50B4B0B4C0C4A20461A600421002287
:101A7000FFF794FF04F1680001220921FFF78EFFB0
:101A800004F1D0000222BDE810401221FFF786BF0A
:101A900024030020EC010020091A0008014800F08E
:101AA000F0B900BF2D030020014800F0EBB900BFE2
:101AB0002D03002010B50446FFF7F0FF236A1BB189
:101AC000BDE81040FFF7F0BF044B2362044B1B68D6
:101AD000002BF5D1FFF7C4FFF2E700BF211A000881
:101AE000240300202DE9F8430746884614460026C3
:101AF000D4E90195B9F1010905D52468002CF7D185
:101B00003046BDE8F883AB89012B07D9B5F90E3013
:101B1000013303D029463846C04706436835E9E714
:101B2000036A70B505460E4684680BB9FFF7C2FF1D
:101B3000636EDB0705D4A389980502D4A06D00F07D
:101B4000A0F9A389190713D523698BB1013EA368B6
:101B500016F8011F013BA360E9B9002B2EDA2246DB
:101B60000A21284600F07BF8013007D00A2507E05B
:101B70002146284600F0B0F80028E7D04FF0FF35A6
:101B8000636EDA0705D4A3899B0502D4A06D00F02B
:101B900079F9284670BD002B04DAA2699A4206DC66
:101BA0000A2904D023685A1C22601970CFE7224604
:101BB000284600F054F80130C9D1DFE70A25236830
:101BC0005A1C22601D70DBE7024B01461868FFF7C4
:101BD000A7BF00BF5800002010B50C46B1F90E1089
:101BE00000F000F90028ABBF636DA3891B1823F434
:101BF0008053ACBF6365A38110BD2DE9F0411F4642
:101C00008B890546DB050C46164605D502230022C6
:101C1000B1F90E1000F0D4F8A389324623F48053B2
:101C2000A38128463B46B4F90E10BDE8F04100F010
:101C3000EBB810B50C46B1F90E1000F0C1F8431C1A
:101C4000A38915BF606523F4805343F48053A381B7
:101C500018BFA38110BDB1F90E1000F0A1B8F8B5FE
:101C60000E461446054618B1036A0BB9FFF722FF6A
:101C7000A369A360A3891A0725D523691BB3236829
:101C80002269F6B2981A63693746834204DC21461A
:101C9000284601F06BFCE0B9A368013BA360236810
:101CA0005A1C22601E706269431C9A4204D0A389A8
:101CB000DB0706D50A2E04D12146284601F056FC42
:101CC00038B93846F8BD2146284600F005F8002806
:101CD000D5D04FF0FF37F4E738B52A4B05461868E2
:101CE0000C4618B1036A0BB9FFF7E4FEA389B4F9F7
:101CF0000C20180722D4D90607D409232B6042F000
:101D000040034FF0FF30A38134E0580712D5616BD8
:101D100041B104F14403994202D0284600F030FF5B
:101D200000236363A38923F02403A381002363605A
:101D300023692360A38943F00803A38123694BB976
:101D4000A38903F42073B3F5007F03D0214628460E
:101D500001F059FCA089B4F90C2010F001030AD05D
:101D60000023A36063695B42A361236943B910F058
:101D70008000C4D138BD810758BF6369A360F4E710
:101D80000020F7E75800002003460244934200D1A8
:101D9000704703F8011BF9E7004870474C01002029
:101DA00038B50023054D044608462B60FFF705F9BA
:101DB000431C02D12B6803B1236038BD28030020E7
:101DC00038B50446084611460022054D2A601A46D9
:101DD000FFF717F9431C02D12B6803B1236038BD0C
:101DE0002803002038B50446084611460022054D58
:101DF0002A601A46FFF7C4F8431C02D12B6803B1CE
:101E0000236038BD2803002038B504460846114633
:101E10000022054D2A601A46FFF775F8431C02D1CF
:101E20002B6803B1236038BD28030020014B1868DC
:101E3000704700BF5800002070B500260C4D0D4CB7
:101E4000641BA410A64209D101F04AFE00260A4DE7
:101E50000A4C641BA410A64205D170BD55F8043B82
:101E600098470136EEE755F8043B98470136F2E70C
:101E7000843E0008843E0008843E0008883E000836
:101E8000704770477047034610B5C9B20244934289
:101E9000184601D1002003E0047801338C42F6D1CA
:101EA00010BD2DE9F74F03690C690746A3427FDB9C
:101EB000013C00F1140501F1140805EB84030193C2
:101EC00058F8243055F8242001339A42B2FBF3F637
:101ED0004FEA840B08EB840931D34FF0000E4046E3
:101EE000AC46F24650F8042B93B206FB03E34FEAEC
:101EF000124E1A0C9BB206FB0E22AAEB0303DCF86F
:101F000000A04FEA124E1FFA8AFA5344DCF800A0F0
:101F100092B2C2EB1A4202EB23429BB243EA024363
:101F200081454FEA224A4CF8043BDBD255F80B308E
:101F30002BB9019B043B9D421A462DD33C61384688
:101F400001F094F9002823DB29460020013658F8D7
:101F5000042BD1F800C093B2C31A120C1FFA8CF0F4
:101F60000344C2EB1C4202EB23429BB243EA02430E
:101F7000C1454FEA224041F8043BE8D255F82420FD
:101F800005EB840322B9043B9D421A460AD33C6107
:101F9000304603B0BDE8F08F1268043B002ACDD173
:101FA000013CC8E71268043B002AF0D1013CEBE792
:101FB0000020EEE7000000002DE9F04F16461F4616
:101FC000C46999B00546CDE90467DDF8948074B919
:101FD000102000F01DFE0246E86120B9EF21AC4B55
:101FE000AC4801F08DFBC0E901440460C460EB69BA
:101FF000196851B15A68012393404A608B602846A2
:1020000000F0FAFE0022EB691A603B1EAFBF00230E
:10201000012223F000430593A8BFC8F80030DDF883
:1020200014909D4BB8BFC8F8002033EA090319D1BA
:1020300042F20F73249A1360C9F31303334300F081
:102040008985269B53B9954B23E0954B0393083321
:10205000269A1360039819B0BDE8F08F8F4B039355
:102060000333F5E7DDE90434CDE90C34DDE90C0197
:1020700000220023FEF798FC804660B10123249AD9
:102080001360269B002B00F06285864B269A136016
:10209000013B0393DEE716AB019317AB0093284691
:1020A000DDE90C2301F08AF9C9F30A548246002CB9
:1020B0007ED0DDE90C010D9BA4F2FF34C3F31303C2
:1020C00043F07F5343F44013CDF84C80194600226F
:1020D000754BFEF749F868A3D3E90023FEF7FCF936
:1020E00067A3D3E90023FEF741F8064620460F46D2
:1020F000FEF788F964A3D3E90023FEF7EDF9024661
:102100000B4630463946FEF731F806460F46FEF7D5
:1021100093FC00228346002330463946FEF74EFCEE
:1021200048B15846FEF76EF932463B46FEF73CFC96
:1021300008B90BF1FF3BBBF1160F57D8DDE90C01D5
:102140005A4B03EBCB03D3E90023FEF737FC0028FF
:102150004ED000230BF1FF3B0F93169B1B1B5A1E07
:1021600046BFC3F1010900234FF00009099248BF9F
:102170000993BBF1000F3DDB099BCDF838B05B4400
:10218000099300230A93229B092B67D8052BC4BF10
:10219000043B2293229BC8BF0024A3F10203D8BFB3
:1021A0000124032B00F28680DFE803F02C39375638
:1021B000DDE916431C4404F23243202BC1BFC3F1B6
:1021C000400309FA03F904F2124326FA03F3D6BFD7
:1021D000C3F1200349EA030006FA03F0FEF702F90F
:1021E0000122A1F1F873013C13926FE70123B3E7D9
:1021F0000F90B2E7CBF100030A930023A9EB0B0980
:102200000E93C0E700230B93239B002B55DC012387
:102210001A460693089323920BE00123F3E7002369
:102220000B93239B5B4406930133012B0893B8BFA8
:10223000012300210422E86902F114069E4240D9DC
:102240004160284600F098FD039000283CD10246EA
:1022500040F2AF11164BC3E60123E1E7012400234E
:102260000B9422934FF0FF3300220693089312231E
:10227000D1E700BFAFF3008061436F63A787D23F10
:10228000B3C8608B288AC63FFB799F501344D33F65
:10229000523B0008693B00080000F07F4E3B0008FD
:1022A000453B0008223B00080000F83F583C00086E
:1022B000C13B000801230B93D4E7239B06930893AB
:1022C000B7E701315200B7E7EB69039A1A60089B40
:1022D0000E2B00F2A880002C00F0A580BBF1000FAF
:1022E00034DD9A4B0BF00F0203EBC2031BF4807F2B
:1022F000D3E90034CDE910344FEA2B1416D0DDE9D0
:102300000C01934B0327D3E90823FEF70FFACDE91D
:10231000040104F00F048E4E54B9DDE91023DDE909
:102320000401FEF703FACDE9040129E00227F2E7F0
:10233000E10708D5DDE91001D6E90023FEF7CCF866
:10234000CDE91001013764100836E5E700F0A580FB
:10235000DDE90C01CBF100047C4B04F00F0203EB30
:10236000C203D3E90023FEF7B7F802270023CDE923
:102370000401774E2411002C40F08480002BD2D130
:10238000DDE90434CDE910340F9B002B00F0878089
:10239000DDE9100100226F4BFEF710FB00287ED014
:1023A000089B002B7BD0069B002B38DDDDE910015C
:1023B0000022694BFEF790F8CDE90401069C0BF171
:1023C000FF3801373846FEF71DF8DDE90423FEF734
:1023D00083F80022614BFDF7C9FEA1F15076CDE9EB
:1023E00010011196002C5DD1DDE9040100225C4B47
:1023F000FDF7BAFE02460B46CDE904233346109A98
:10240000FEF7FAFA002840F09582DDE90401109AFF
:1024100006F10043FEF7D2FA002840F08982DDE998
:102420000C34CDE90434179B002BC0F25181BBF171
:102430000E0F00F34D81454B03EBCB03D3E9003482
:10244000CDE90634239B002B80F2DA80089B002B19
:1024500000F3D68040F06B82DDE906010022404B9C
:10246000FEF73AF8DDE90423FEF7BCFA089C26469D
:10247000002840F041823123039F0BF1010B07F844
:10248000013B3DE2E20705D5D6E90023FEF724F83B
:1024900001230137641008366DE7022770E7D8463C
:1024A000089C8FE70399294B214412910B9903EB68
:1024B000C403DDE9106753E90223002954D000204A
:1024C0002849FEF733F93B463246FDF74DFECDE98C
:1024D0001001039FDDE90401FEF7AEFA0446FDF7A3
:1024E00091FF02460B46DDE90401FDF73DFE024681
:1024F0000B463034CDE90423DDE9102307F8014B06
:10250000FEF75CFA002873D1DDE9042300201149AD
:10251000FDF72AFEDDE91023FEF750FA002840F00F
:10252000B680129B9F423FF47AAFDDE91001002292
:10253000094BFDF7D1FF0022CDE91001DDE90401CF
:10254000054BFDF7C9FFCDE90401C3E7583C00087E
:10255000303C00080000F03F0000244000001C4018
:10256000000014400000E03F30463946FDF7B4FF5C
:10257000129BCDE91001039C1493DDE90401FEF7E1
:102580005BFA1590FDF73EFF02460B46DDE90401BC
:10259000FDF7EAFD159B0646303304F8013B129B1C
:1025A0000F469C424FF0000224D1DDE91001AF4BF1
:1025B000FDF7DCFD02460B4630463946FEF71CFAB5
:1025C000002863D1DDE910230020A849FDF7CCFDE8
:1025D00002460B4630463946FEF7F0F900283FF434
:1025E0001EAF149F7B1E149317F8013C302BF8D0BC
:1025F000C3463BE09E4BFDF76FFFCDE90401BCE70E
:10260000039FDDE90489DDE9062340464946FEF7DC
:102610008DF8FEF711FA0446FDF7F4FEDDE9062316
:10262000FDF75AFF02460B4640464946FDF79CFD22
:1026300004F1300607F8016B039EDDF820C0BE1BD5
:10264000B44502460B4636D1FDF790FDDDE9062381
:1026500080468946FEF7D0F958BBDDE9062340469F
:102660004946FEF7A1F908B1E30722D451462846AE
:1026700000F0C2FB0023249A3B700BF101031360AE
:10268000269B002B3FF4E6AC1F60E3E427463B4665
:102690001F4613F8012D392A07D1039A9A42F7D120
:1026A0003022039908F101080A701A7801321A7071
:1026B0009EE7D846EBE700226D4BFDF70DFF0022A9
:1026C000002380468946FEF76FF900289BD0CDE7AE
:1026D0000B9A002A00F0C480229A012A00F3A880F5
:1026E000139A002A00F0A08003F233434F460A9C5D
:1026F000099A01211A4428469944099200F032FCB3
:1027000006465FB1099B002B08DDBB42A8BF3B46D4
:10271000099AA9EB0309FF1AD31A09930A9BF3B18B
:102720000B9B002B00F0A080002C10DD31462246D0
:10273000284600F0D5FC524601460646284600F0E1
:1027400027FC80465146284600F056FBC2460A9BAD
:102750001A1B04D05146284600F0C2FC82460121D3
:10276000284600F0FFFB0E9B0446002B40F38280BE
:102770001A460146284600F0B3FC229B0446012B72
:102780007BDD4FF00008236904EB8303186900F038
:102790009BFBC0F12000099B184410F01F0000F0C3
:1027A0009280C0F12003042B40F38580099BC0F187
:1027B0001C000344814407440993B9F1000F05DD6F
:1027C00051464A46284600F0E5FC8246099B002B0C
:1027D00005DD21461A46284600F0DCFC04460F9B26
:1027E000002B72D02146504600F040FD00286CDAE4
:1027F000002351460A22284600F020FB0B9B82460C
:102800000BF1FF3B002B00F0AC81002331460A2284
:10281000284600F013FB069B0646002B00F393802E
:10282000229B022B59DC8EE0169BC3F136035DE739
:10283000089B5C1E0A9BA342BFBF0A9B0E9AE31A29
:10284000D218A8BF1C1B089BBEBF0A940E9200247E
:10285000002BB5BFA9EB03074F460023089B47E7B2
:102860004F460A9C0B9E4CE70A9A73E70000E03F34
:1028700000002440229B012B18DC049BB3B9059B6C
:10288000C3F3130393B9059B23F000431B0D1B05F2
:102890007BB14FF00108099B09F10109013309934C
:1028A0000E9B002B7FF46FAF012074E74FF0000800
:1028B000F6E79846F4E780D0099A1C331A44994405
:1028C0001F44099279E70346F6E7089B002B34DCA6
:1028D000229B022B31DD089B0693069B63B92146A0
:1028E0000522284600F0AAFA01460446504600F0A8
:1028F000BDFC00283FF7BFAD239B039F6FEA030B8E
:102900004FF000082146284600F076FA002E3FF4EA
:10291000ADAEB8F1000F05D0B04503D04146284612
:1029200000F06AFA3146284600F066FA9EE6002476
:102930002646E1E7C34626469DE50B9B002B00F0AB
:10294000C880089B0693002F05DD31463A4628468D
:1029500000F020FC0646B8F1000F5BD028467168F5
:1029600000F00AFA074628B9024640F2EF21814BEF
:10297000FFF736BB326906F10C01023292000C30CF
:1029800000F0B0FE01223946284600F003FCB046B4
:102990000646039B039A01330893069B13440B934B
:1029A000049B03F001030A93089B2146013B504618
:1029B0000493FFF776FA4146069000F1300950463D
:1029C00000F054FC324609902146284600F06AFC8B
:1029D000C268074602BB0146504600F047FC02466B
:1029E000394628460C9200F007FA229B0C9A089F61
:1029F00043EA02010A9B194310D1B9F1390F29D0DA
:102A0000099B002B02DD069B03F13109049B83F82F
:102A1000009077E73046BAE70122E1E7099B002BF7
:102A200004DB22990B430A990B4320D1002AEDDDE8
:102A300051460122284600F0ADFB2146824600F0B7
:102A400015FC002803DCE1D119F0010FDED0B9F14B
:102A5000390FD8D13923049A13703B461F4617F813
:102A6000012C013B392A6BD001321A704AE7002A47
:102A700007DDB9F1390FEDD0049A09F101031370A4
:102A800040E7089B0B9A03F8019C934242D05146C1
:102A900000230A22284600F0D1F9B04582464FF0C3
:102AA00000034FF00A024146284607D100F0C6F95C
:102AB00080460646089B0133089375E700F0BEF98F
:102AC0003146804600230A22284600F0B7F9064620
:102AD000F0E7089B0693039F21465046FFF7E1F974
:102AE000039B00F1300907F8019BFA1A069B9342F9
:102AF00007DD514600230A22284600F09FF982464E
:102B0000EAE7069B4FF00008002BCCBF1F460127C9
:102B1000039B1F4451460122284600F03BFB2146FF
:102B2000824600F0A3FB002897DC02D119F0010FC8
:102B300093D13B461F4613F8012D302AFAD0E1E627
:102B4000039A9A428AD131230BF1010B97E70A4B82
:102B5000FFF79FBA269B002B7FF477AA074BFFF75E
:102B600098BA069B002BB6DC229B022B3FF7B5AE32
:102B7000B1E700BFC13B0008213B0008453B00080E
:102B800038B50546002940D051F8043C0C1F002BF5
:102B9000B8BFE41800F0E4F81C4A136833B9636066
:102BA00014602846BDE8384000F0E0B8A34208D9D8
:102BB000206821188B4201BF19685B6809182160E1
:102BC000EDE71A465B680BB1A342FAD911685018B9
:102BD000A0420BD120680144501883421160E0D11B
:102BE00018685B68084410605360DAE702D90C2368
:102BF0002B60D6E7206821188B4201BF19685B68FB
:102C00000918216063605460CBE738BD30030020B1
:102C1000024B0146186800F023B800BF580000209E
:102C200070B50E4E0C463168054611B900F04AFDEC
:102C300030602146284600F045FD431C0AD0C41CE4
:102C400024F00304A04207D0211A284600F03AFDE0
:102C5000013001D14FF0FF34204670BD3403002015
:102C60002DE9F843CD1C25F0030508350C2D38BFA0
:102C70000C25002D074601DBA94205D90C230026AF
:102C80003B603046BDE8F883DFF8D08000F068F89C
:102C9000D8F800301C465CBB29463846FFF7C0FF19
:102CA000431C044655D1D8F800402646002E45D195
:102CB000002C48D023683146384604EB030900F065
:102CC00001FD81453FD1216838466D1A2946FFF73D
:102CD000A7FF013037D023682B442360D8F8003099
:102CE000002B38D05A68A2422BD100225A600FE044
:102CF0002268521B1FD40B2A17D96119A3422560E1
:102D000018BF5960636808BFC8F8001062514B6073
:102D1000384604F10B0600F029F826F00706231DBB
:102D2000F21AAED09B1BA350ABE7A3426268DDD181
:102D3000C8F80020ECE723466468ACE734467668C0
:102D4000B4E71346CCE70C2338463B6000F00EF89E
:102D500097E72560DCE75B60FFDE00BF3003002003
:102D60000148FFF78EB800BF2C0300200148FFF791
:102D700089B800BF2C03002070B5C66904460D4613
:102D800076B91020FFF744FF0246E06120B96B21BD
:102D9000174B184800F0B4FCC0E901660660C66035
:102DA000E669F36883B1E369DB6853F82500B8B9D5
:102DB000012101FA05F6721D2046920000F0BEFCCA
:102DC00060B1C0E901560EE021220421204600F046
:102DD000B5FCE369F060DB68002BE4D1002070BD36
:102DE000026843F825200023C0E90333F7E700BF5A
:102DF000523B0008D23B000870B5C66905460C4638
:102E000076B91020FFF704FF0246E86120B98F2150
:102E1000084B094800F074FCC0E901660660C66012
:102E20003CB1EB696268DB6853F82210216043F81B
:102E3000224070BD523B0008D23B00082DE9F04112
:102E400007460C461E4600200D6901F1140CDCF803
:102E50000030013099B202FB01611E0C0B0C02FB29
:102E6000063389B201EB034185424FEA13464CF821
:102E7000041BECDC0EB3A368AB4219DC6168384676
:102E80000131FFF779FF804628B90246BA210C4B81
:102E90000C4800F035FC226904F10C01023292006A
:102EA0000C3000F01FFC21463846FFF7A5FF4446D2
:102EB00004EB850301355E6125612046BDE8F081A4
:102EC000C13B0008D23B0008020C12040346CAB9F9
:102ED0000304102013F07F4F04BF1B02083013F0CF
:102EE000704F04BF1B01043013F0404F04BF9B0020
:102EF0000230002B05DB13F0804F00F1010008BF0A
:102F0000202070470020E5E70368024613F0070021
:102F10000BD0D90721D4980749BF5B089B08012033
:102F200013605CBF02201360704799B209B910208A
:102F30001B0CD9B209B908301B0A190704BF1B09B9
:102F40000430990704BF9B080230D90703D45B08FB
:102F500000F1010003D0136070470020704720206B
:102F60007047000010B50C460121FFF705FF02462F
:102F700028B940F24511044B044800F0C1FB01237D
:102F80004461036110BD00BFC13B0008D23B000893
:102F90002DE9F04F91460A69D9F810300C469A4253
:102FA000BEBF0B464C4699462769D9F810A0A368C6
:102FB000616807EB0A06B34285B0B8BF0131FFF77D
:102FC000DBFE30B902464FF4B171434B434800F089
:102FD00097FB00F114052B46002205EB86084345BC
:102FE00021D304F1140303EB870709F1140303EB66
:102FF0008A0202923A1B153A22F00302043204F1CB
:1030000015018F4238BF04220192029A03939A421B
:103010000CD8002E03DD58F8043D002B5AD0066171
:1030200005B0BDE8F08F43F8042BD8E7B3F800A053
:10303000BAF1000F23D0A9464FF0000C04F1140E92
:103040005EF8042BD9F800101FFA82FB89B20AFB44
:103050000B116144D9F800C0120C4FEA1C4C0AFB5A
:1030600002C202EB114289B241EA024177454FEABE
:10307000124C49F8041BE3D8019A45F802C0039AA0
:103080000433B2F80290B9F1000F21D0AE464FF0F0
:10309000000A296804F1140CBCF800B0BEF8022044
:1030A00089B209FB0B22524441EA02414EF8041B4B
:1030B0005CF8041B4FEA114ABEF80010674509FB93
:1030C0000A1101EB12414FEA114AE5D8019AA950C1
:1030D00004359AE7013E9CE7C13B0008D23B00085B
:1030E0002DE9F843154612F0030206460F4607D0B5
:1030F000254C013A002354F82220FFF79FFE074693
:10310000AD103DD0F4697CB91020FFF781FD024677
:10311000F06128B940F2B3111C4B1D4800F0F0FAE1
:10312000C0E901440460C460D6F81C80D8F80840A7
:103130004CB940F271213046FFF714FF00230446DA
:10314000C8F8080003604FF00009EB070AD53946BC
:1031500022463046FFF71CFF804639463046FFF7CF
:103160004BFE47466D100BD0206838B922462146E9
:103170003046FFF70DFF2060C0F800900446E4E7FA
:103180003846BDE8F88300BF203D0008523B0008E8
:10319000D23B00082DE9F0470C46074691462369CB
:1031A000496803EB6218A3684FEA621A08F1010646
:1031B000B3420BDB3846FFF7DFFD054648B9024650
:1031C0004FF4EF71274B284800F09AFA01315B0069
:1031D000EEE7002300F1140100F1100218465345F8
:1031E00033DB20692AEAEA7A04F1140319F01F0993
:1031F00001EB8A0103EB800C2BD08A460022C9F137
:10320000200E186800FA09F010434AF8040B53F82E
:10321000042B9C4522FA0EF2F3D8ACEB0403153BC9
:1032200023F00303043304F11500844538BF04235D
:10323000CA500AB108F10206013E384621462E6105
:10324000FFF7DAFD2846BDE8F08742F8040F0133A6
:10325000C5E7043953F8042B9C4541F8042FF9D8ED
:10326000EAE700BFC13B0008D23B000803460A69F9
:10327000006930B5801A0DD11433143103EB820488
:1032800001EB820154F8045D51F8042D954202D0FF
:1032900004D3012030BDA342F4D3FBE74FF0FF304D
:1032A000F8E700002DE9F84F0D460746114628467D
:1032B0001446FFF7DBFF061E11D131463846FFF7F3
:1032C0005BFD024628B940F237213A4B3A4800F0FC
:1032D00017FA0123C0E904361046BDE8F88FA4BFF1
:1032E00023462C4638466168A6BF1D4600260126A7
:1032F000FFF742FD024618B940F245212D4BE5E7A4
:1033000002F11408C2464FF0000C2769C6602E690E
:1033100004F1140005F1140900EB870E09EB860691
:10332000103454F804BF59F8043B1FFA8BF1614480
:103330001FFA83FC1B0CA1EB0C01C3EB1B4303EB3B
:10334000214389B241EA03414E454FEA234C4AF8F2
:10335000041BE6D8731B153B23F003031535043318
:10336000AE4238BF0423184443441E460546754503
:103370000ED30EF10301091A21F00301033886452B
:1033800038BF00210B4453F8041D89B11761A3E72E
:1033900055F8048B1FFA88F161440C1404EB1844AF
:1033A00089B241EA04414FEA244C46F8041BDEE7A7
:1033B000013FE8E7C13B0008D23B0008F7B5012117
:1033C00017461C46089EFFF7D7FC054630B9024653
:1033D00040F20F31224B234800F092F9C4F313035B
:1033E000C4F30A5424BB002F019326D068460097EB
:1033F000FFF78AFDDDE90012E8B1C0F1200302FA0F
:1034000003F30B43C2406B610192019B002B14BF7D
:1034100002210121AB612961BCB1A4F2334404440F
:103420003460C0F13500099B1860284603B0F0BD38
:1034300043F48013D7E76961E7E701A8FFF764FD6C
:10344000019B01216B612030E5E7A0F2324005EBE2
:10345000810330601869FFF737FDC0EB4110E2E7E8
:10346000C13B0008D23B00088A89F8B50546100721
:103470000C4657D44B68002B04DC0B6C002B01DC92
:103480000020F8BDE66A002EFAD0002312F4805224
:103490002F68216A2B6032D0606DA3895A0705D549
:1034A0006368C01A636B0BB1236CC01A0023024619
:1034B000E66A2846216AB047431CA38906D12968D9
:1034C0001D292BD8284A0A41D60727D4002262603A
:1034D0002269D904226004D5421C01D12B6803B9AA
:1034E0006065616B2F600029CAD004F144039942E2
:1034F00002D02846FFF744FB00206063C1E70123A8
:103500002846B047411CC8D12B68002BC5D01D2BC5
:1035100001D0162B01D12F60B2E7A38943F04003FD
:10352000A381AEE70F69002FAAD0930718BF00232D
:103530000E6808BF4B69F61B0F608B60002E9FDD85
:1035400033463A462846216AD4F828C0E047002886
:1035500006DCA3894FF0FF3043F04003A38190E7DE
:103560000744361AEAE700BFFEFFBFDF38B50B6934
:1035700005460C4613B90025284638BD18B1036A24
:103580000BB9FEF797FAB4F90C30002BF3D0626E4A
:10359000D00704D4990502D4A06DFEF772FC28462A
:1035A0002146FFF761FF636E0546DA07E4D4A3897D
:1035B0009B05E1D4A06DFEF765FCDDE770B50C4618
:1035C000B1F90E10154600291E4696B00CDAA389F3
:1035D000002113F0800F0CBF4FF4806340230020C4
:1035E00031602B6016B070BD6A4600F049F80028C3
:1035F000EDDB019901F47041A1F5005359425941A5
:103600004FF48063EBE78B8973B59D0706460C4644
:1036100007D504F14703236023610123636102B0EE
:1036200070BD6A4601ABFFF7C9FF009905463046F9
:10363000FFF716FB48B9B4F90C309A05EFD423F024
:10364000030343F00203A381E3E7A389206043F06F
:103650008003A381009B20616361019B5BB13046C5
:10366000B4F90E1000F01EF828B1A38923F003036B
:1036700043F00103A381A3891D43A581CFE7000087
:1036800038B50023064D0446084611462B60FDF769
:103690009FFC431C02D12B6803B1236038BD00BFDF
:1036A0002803002038B50023054D044608462B604A
:1036B000FDF79DFC431C02D12B6803B1236038BD8C
:1036C0002803002038B50023054D044608462B602A
:1036D000FDF7A4FC431C02D12B6803B1236038BD65
:1036E000280300200A44914200F1FF3300D17047C3
:1036F00010B511F8014B914203F8014FF9D110BDFB
:103700001FB514461A46094B05461B68D8684CB1CC
:10371000074BCDE9013400912B46064900F042F8F1
:1037200000F052F8044B1C46F3E700BF580000209D
:10373000363D0008433D0008713D000870B5A1FB0F
:10374000025434B92946FFF78BFA064628B93046A9
:1037500070BD0C2200260260F9E72A462146FEF7DA
:1037600013FBF4E782B001B901A942B14BB1137860
:103770000B601278101E18BF012002B0704710466F
:10378000FBE76FF00100F8E70346084641B1FF2A66
:1037900004D98A224FF0FF301A60704701200A7066
:1037A000704700000EB403B5014603AB054853F85B
:1037B000042B0068019300F035F802B05DF804EBCB
:1037C00003B0704758000020062008B500F06CF9DF
:1037D0000120FDF7CBFB936810B4013B002B9360F5
:1037E00007DA9469A34201DB0A2902D110BCFEF773
:1037F00036BA1368581C10601970084610BC704720
:10380000F8B506460F461446D518AC4201D1002043
:1038100007E03A46304614F8011BFFF7DCFF431C73
:10382000F3D1F8BD2DE9F04F0D46144698460646F3
:103830009DB018B1036A0BB9FEF73CF96B6ED9075E
:1038400005D4AB899A0502D4A86DFEF71AFBAB89A3
:103850001B0701D52B699BB929463046FEF73CFA78
:1038600070B16B6EDC0704D54FF0FF301DB0BDE8C2
:10387000F08FAB899805F7D4A86DFEF703FBF3E74B
:103880000023099320238DF8293030234FF00109BC
:10389000CDF80C80DFF8AC818DF82A3023469A46AB
:1038A00013F8012B0AB1252AF9D1BAEB040B0BD07E
:1038B0005B46224629463046FFF7A2FF013000F062
:1038C000A980099A5A4409929AF80030002B00F016
:1038D000A18000234FF0FF32CDE905230AF1010A50
:1038E000049307938DF853301A935446052214F825
:1038F000011B5448FEF7C7FA049AD8B9D10644BF51
:1039000020238DF85330130744BF2B238DF85330F9
:103910009AF800302A2B15D0544600204FF00A0C9C
:10392000079A214611F8013B303B092B4DD9B0B124
:10393000079214E0A0EB080309FA03F31343A2462D
:103940000493D2E7039B191D1B680391002BBBBF97
:103950005B4242F0020207930793B8BF04922378B8
:103960002E2B0CD163782A2B34D1039B02341A1DE1
:103970001B680392002BB8BF4FF0FF330593DFF8AD
:10398000C8A0032250462178FEF77DFA38B14022C4
:10399000049BA0EB0A00824013430134049314F803
:1039A000011B062229488DF82810FEF76CFA002822
:1039B0003FD0274B1BBB039B073323F00703083380
:1039C0000393099B3B44099368E70C4601200CFBD9
:1039D0000232A6E700234FF00A0C19460134059382
:1039E000204610F8012B303A092A03D9002BC6D003
:1039F0000591C4E7044601230CFB0121F0E703AB6A
:103A000000932A463046134B04A9FDF705FC0746F0
:103A1000781CD6D16B6ED90705D4AB899A0502D430
:103A2000A86DFEF72FFAAB895B063FF51DAF09982D
:103A30001CE703AB00932A463046064B04A9FDF76A
:103A40008BFEE4E7733E0008793E00087D3E0008E7
:103A500019120008013800081F2938B504460D4620
:103A600004D9162303604FF0FF3038BDC26B12B18A
:103A700052F821304BB9204600F030F82A46014672
:103A80002046BDE8384000F017B8012B0AD0591C79
:103A900003D1162303600120E7E70024284642F8FB
:103AA000254098470020E0E7024B01461868FFF7E1
:103AB000D3BF00BF5800002038B50023064D044690
:103AC000084611462B60FDF741FA431C02D12B68D2
:103AD00003B1236038BD00BF28030020FDF72FBAD3
:103AE000F8B500BFF8BC08BC9E467047F8B500BFEB
:083AF000F8BC08BC9E467047BB
:103AF80048454C4C4F203F0048454C4C4C4F4F4F8D
:103B08004F0000004B49412000494E4600696E664F
:103B1800004E414E006E616E003000303132333459
:103B2800353637383941424344454600303132331F
:103B380034353637383961626364656600496E66C4
:103B4800696E697479004E614E005245454E5420A5
:103B58006D616C6C6F632073756363656564656420
:103B6800002F6275696C642F676E752D746F6F6CAA
:103B7800732D666F722D73746D33325F31312E334E
:103B88002E72656C312E32303233303931322D316C
:103B98003630302F7372632F6E65776C69622F6EC3
:103BA80065776C69622F6C6962632F7374646C69E2
:103BB800622F64746F612E630042616C6C6F6320C6
:103BC800737563636565646564002F6275696C6409
:103BD8002F676E752D746F6F6C732D666F722D73F2
:103BE800746D33325F31312E332E72656C312E3263
:103BF800303233303931322D313630302F737263F1
:103C08002F6E65776C69622F6E65776C69622F6CB1
:103C18006962632F7374646C69622F6D7072656377
:103C28002E630000000000000080E03779C34143A4
:103C3800176E05B5B5B89346F5F93FE9034F384D0A
:103C4800321D30F94877825A3CBF737FDD4F1575B6
:103C5800000000000000F03F0000000000002440C9
:103C680000000000000059400000000000408F40A4
:103C7800000000000088C34000000000006AF8400F
:103C88000000000080842E4100000000D012634133
:103C98000000000084D797410000000065CDCD41A9
:103CA800000000205FA00242000000E8764837428A
:103CB800000000A2941A6D42000040E59C30A24228
:103CC8000000901EC4BCD64200003426F56B0C439D
:103CD8000080E03779C3414300A0D8855734764344
:103CE80000C84E676DC1AB43003D9160E458E143A5
:103CF800408CB5781DAF154450EFE2D6E41A4B441A
:103D080092D54D06CFF08044F64AE1C7022DB5445E
:103D1800B49DD9794378EA440500000019000000F1
:103D28007D0000004300504F534958002E002C20BE
:103D380066756E6374696F6E3A200061737365729D
:103D480074696F6E2022257322206661696C656430
:103D58003A2066696C6520222573222C206C696ED6
:103D680065202564257325730A0000202020202063
:103D78002020202028282828282020202020202013
:103D88002020202020202020202020881010101003
:103D98001010101010101010101010040404040457
:103DA8000404040404101010101010104141414183
:103DB800414101010101010101010101010101016B
:103DC800010101010101101010101010424242427D
:103DD800424202020202020202020202020202023B
:103DE800020202020202101010102000000000005F
:103DF80000000000000000000000000000000000BB
:103E080000000000000000000000000000000000AA
:103E1800000000000000000000000000000000009A
:103E2800000000000000000000000000000000008A
:103E3800000000000000000000000000000000007A
:103E4800000000000000000000000000000000006A
:103E5800000000000000000000000000000000005A
:103E68000000000000000000000000232D302B207F
:0C3E780000686C4C00656667454647001A
:043E840035010008FC
:043E8800110100081C
:103E8C000000000003000000EC0100200000000016
:103E9C00EC01002054020020BC02002000000000B5
:103EAC000000000000000000000000000000000006
:103EBC0000000000000000000000000000000000F6
:103ECC0000000000000000000000000000000000E6
:103EDC0000000000000000000C0000204300000067
:103EEC0000000000000000000000000000000000C6
:103EFC000000000000000000000000004300000073
:103F0C0000000000000000000000000000000000A5
:103F1C000000000000000000000000004300000052
:103F2C000000000000000000000000000000000085
:103F3C000000000000000000000000004300000032
:103F4C000000000000000000000000000000000065
:103F5C000000000000000000000000004300000012
:103F6C000000000000000000000000000000000045
:103F7C0000000000000000000000000043000000F2
:103F8C000000000000000000000000000000000025
:103F9C0000000000000000000000000043000000D2
:103FAC000000000000000000000000000000000005
:103FBC00000000000000000000000000893700082D
:103FCC006537000800000000723D0008343D000811
:103FDC00713D0008713D0008713D0008713D0008FD
:103FEC00713D0008713D0008713D0008713D0008ED
:103FFC00713D0008FFFFFFFFFFFFFFFFFFFFFFFF0B
:10400C00FFFF00000100415343494900000000003C
:10401C000000000000000000000000000000000094
:10402C00000000000000415343494900000000001B
:10403C000000000000000000000000000000000074
:08404C0000000000000000006C
:04000005080010954A
:00000001FF
